{
  "address": "0x5FbDB2315678afecb367f032d93F642f64180aa3",
  "abi": [
    {
      "inputs": [
        {
          "internalType": "string",
          "name": "_newBaseUri",
          "type": "string"
        }
      ],
      "stateMutability": "nonpayable",
      "type": "constructor"
    },
    {
      "anonymous": false,
      "inputs": [
        {
          "indexed": true,
          "internalType": "address",
          "name": "account",
          "type": "address"
        },
        {
          "indexed": true,
          "internalType": "address",
          "name": "operator",
          "type": "address"
        },
        {
          "indexed": false,
          "internalType": "bool",
          "name": "approved",
          "type": "bool"
        }
      ],
      "name": "ApprovalForAll",
      "type": "event"
    },
    {
      "anonymous": false,
      "inputs": [
        {
          "indexed": true,
          "internalType": "address",
          "name": "previousOwner",
          "type": "address"
        },
        {
          "indexed": true,
          "internalType": "address",
          "name": "newOwner",
          "type": "address"
        }
      ],
      "name": "OwnershipTransferred",
      "type": "event"
    },
    {
      "anonymous": false,
      "inputs": [
        {
          "indexed": true,
          "internalType": "uint256",
          "name": "tokenId",
          "type": "uint256"
        },
        {
          "indexed": false,
          "internalType": "string",
          "name": "uriId",
          "type": "string"
        },
        {
          "indexed": false,
          "internalType": "bool",
          "name": "transferables",
          "type": "bool"
        }
      ],
      "name": "TierChange",
      "type": "event"
    },
    {
      "anonymous": false,
      "inputs": [
        {
          "indexed": true,
          "internalType": "address",
          "name": "operator",
          "type": "address"
        },
        {
          "indexed": true,
          "internalType": "address",
          "name": "from",
          "type": "address"
        },
        {
          "indexed": true,
          "internalType": "address",
          "name": "to",
          "type": "address"
        },
        {
          "indexed": false,
          "internalType": "uint256[]",
          "name": "ids",
          "type": "uint256[]"
        },
        {
          "indexed": false,
          "internalType": "uint256[]",
          "name": "values",
          "type": "uint256[]"
        }
      ],
      "name": "TransferBatch",
      "type": "event"
    },
    {
      "anonymous": false,
      "inputs": [
        {
          "indexed": true,
          "internalType": "address",
          "name": "operator",
          "type": "address"
        },
        {
          "indexed": true,
          "internalType": "address",
          "name": "from",
          "type": "address"
        },
        {
          "indexed": true,
          "internalType": "address",
          "name": "to",
          "type": "address"
        },
        {
          "indexed": false,
          "internalType": "uint256",
          "name": "id",
          "type": "uint256"
        },
        {
          "indexed": false,
          "internalType": "uint256",
          "name": "value",
          "type": "uint256"
        }
      ],
      "name": "TransferSingle",
      "type": "event"
    },
    {
      "anonymous": false,
      "inputs": [
        {
          "indexed": false,
          "internalType": "string",
          "name": "value",
          "type": "string"
        },
        {
          "indexed": true,
          "internalType": "uint256",
          "name": "id",
          "type": "uint256"
        }
      ],
      "name": "URI",
      "type": "event"
    },
    {
      "inputs": [
        {
          "internalType": "address[]",
          "name": "tokens",
          "type": "address[]"
        },
        {
          "internalType": "string[]",
          "name": "tierUris",
          "type": "string[]"
        }
      ],
      "name": "addBoxTokens",
      "outputs": [],
      "stateMutability": "nonpayable",
      "type": "function"
    },
    {
      "inputs": [
        {
          "internalType": "address",
          "name": "holder",
          "type": "address"
        }
      ],
      "name": "allBalancesOf",
      "outputs": [
        {
          "internalType": "uint256[]",
          "name": "balances",
          "type": "uint256[]"
        }
      ],
      "stateMutability": "view",
      "type": "function"
    },
    {
      "inputs": [
        {
          "internalType": "address",
          "name": "account",
          "type": "address"
        },
        {
          "internalType": "uint256",
          "name": "id",
          "type": "uint256"
        }
      ],
      "name": "balanceOf",
      "outputs": [
        {
          "internalType": "uint256",
          "name": "",
          "type": "uint256"
        }
      ],
      "stateMutability": "view",
      "type": "function"
    },
    {
      "inputs": [
        {
          "internalType": "address[]",
          "name": "accounts",
          "type": "address[]"
        },
        {
          "internalType": "uint256[]",
          "name": "ids",
          "type": "uint256[]"
        }
      ],
      "name": "balanceOfBatch",
      "outputs": [
        {
          "internalType": "uint256[]",
          "name": "",
          "type": "uint256[]"
        }
      ],
      "stateMutability": "view",
      "type": "function"
    },
    {
      "inputs": [
        {
          "internalType": "address",
          "name": "account",
          "type": "address"
        },
        {
          "internalType": "uint256",
          "name": "id",
          "type": "uint256"
        },
        {
          "internalType": "uint256",
          "name": "amount",
          "type": "uint256"
        }
      ],
      "name": "burn",
      "outputs": [],
      "stateMutability": "nonpayable",
      "type": "function"
    },
    {
      "inputs": [
        {
          "internalType": "address[]",
          "name": "accounts",
          "type": "address[]"
        },
        {
          "internalType": "uint256[]",
          "name": "tokenIds",
          "type": "uint256[]"
        },
        {
          "internalType": "uint256[]",
          "name": "amounts",
          "type": "uint256[]"
        }
      ],
      "name": "burnFromMultiple",
      "outputs": [],
      "stateMutability": "nonpayable",
      "type": "function"
    },
    {
      "inputs": [
        {
          "internalType": "string",
          "name": "_newBaseUri",
          "type": "string"
        }
      ],
      "name": "changeBaseUri",
      "outputs": [],
      "stateMutability": "nonpayable",
      "type": "function"
    },
    {
      "inputs": [
        {
          "internalType": "address[]",
          "name": "boxTokens",
          "type": "address[]"
        }
      ],
      "name": "claimGovernanceTokens",
      "outputs": [],
      "stateMutability": "nonpayable",
      "type": "function"
    },
    {
      "inputs": [
        {
          "internalType": "uint256",
          "name": "tokenId",
          "type": "uint256"
        },
        {
          "internalType": "string",
          "name": "uriId",
          "type": "string"
        },
        {
          "internalType": "bool",
          "name": "transferable",
          "type": "bool"
        },
        {
          "internalType": "address",
          "name": "boxToken",
          "type": "address"
        }
      ],
      "name": "createTokenTier",
      "outputs": [],
      "stateMutability": "nonpayable",
      "type": "function"
    },
    {
      "inputs": [],
      "name": "getBoxTokens",
      "outputs": [
        {
          "internalType": "address[]",
          "name": "boxTokens",
          "type": "address[]"
        }
      ],
      "stateMutability": "view",
      "type": "function"
    },
    {
      "inputs": [
        {
          "internalType": "address",
          "name": "account",
          "type": "address"
        },
        {
          "internalType": "address",
          "name": "operator",
          "type": "address"
        }
      ],
      "name": "isApprovedForAll",
      "outputs": [
        {
          "internalType": "bool",
          "name": "",
          "type": "bool"
        }
      ],
      "stateMutability": "view",
      "type": "function"
    },
    {
      "inputs": [
        {
          "internalType": "address",
          "name": "account",
          "type": "address"
        },
        {
          "internalType": "uint256",
          "name": "id",
          "type": "uint256"
        },
        {
          "internalType": "uint256",
          "name": "amount",
          "type": "uint256"
        }
      ],
      "name": "mint",
      "outputs": [],
      "stateMutability": "nonpayable",
      "type": "function"
    },
    {
      "inputs": [
        {
          "internalType": "address[]",
          "name": "accounts",
          "type": "address[]"
        },
        {
          "internalType": "uint256[]",
          "name": "tokenIds",
          "type": "uint256[]"
        },
        {
          "internalType": "uint256[]",
          "name": "amounts",
          "type": "uint256[]"
        }
      ],
      "name": "mintToMultiple",
      "outputs": [],
      "stateMutability": "nonpayable",
      "type": "function"
    },
    {
      "inputs": [],
      "name": "owner",
      "outputs": [
        {
          "internalType": "address",
          "name": "",
          "type": "address"
        }
      ],
      "stateMutability": "view",
      "type": "function"
    },
    {
      "inputs": [],
      "name": "renounceOwnership",
      "outputs": [],
      "stateMutability": "nonpayable",
      "type": "function"
    },
    {
      "inputs": [
        {
          "internalType": "address",
          "name": "from",
          "type": "address"
        },
        {
          "internalType": "address",
          "name": "to",
          "type": "address"
        },
        {
          "internalType": "uint256[]",
          "name": "ids",
          "type": "uint256[]"
        },
        {
          "internalType": "uint256[]",
          "name": "amounts",
          "type": "uint256[]"
        },
        {
          "internalType": "bytes",
          "name": "data",
          "type": "bytes"
        }
      ],
      "name": "safeBatchTransferFrom",
      "outputs": [],
      "stateMutability": "nonpayable",
      "type": "function"
    },
    {
      "inputs": [
        {
          "internalType": "address",
          "name": "from",
          "type": "address"
        },
        {
          "internalType": "address",
          "name": "to",
          "type": "address"
        },
        {
          "internalType": "uint256",
          "name": "id",
          "type": "uint256"
        },
        {
          "internalType": "uint256",
          "name": "amount",
          "type": "uint256"
        },
        {
          "internalType": "bytes",
          "name": "data",
          "type": "bytes"
        }
      ],
      "name": "safeTransferFrom",
      "outputs": [],
      "stateMutability": "nonpayable",
      "type": "function"
    },
    {
      "inputs": [
        {
          "internalType": "address",
          "name": "operator",
          "type": "address"
        },
        {
          "internalType": "bool",
          "name": "approved",
          "type": "bool"
        }
      ],
      "name": "setApprovalForAll",
      "outputs": [],
      "stateMutability": "nonpayable",
      "type": "function"
    },
    {
      "inputs": [
        {
          "internalType": "bytes4",
          "name": "interfaceId",
          "type": "bytes4"
        }
      ],
      "name": "supportsInterface",
      "outputs": [
        {
          "internalType": "bool",
          "name": "",
          "type": "bool"
        }
      ],
      "stateMutability": "view",
      "type": "function"
    },
    {
      "inputs": [
        {
          "internalType": "uint256",
          "name": "",
          "type": "uint256"
        }
      ],
      "name": "tokenTiers",
      "outputs": [
        {
          "internalType": "string",
          "name": "uriId",
          "type": "string"
        },
        {
          "internalType": "bool",
          "name": "transferable",
          "type": "bool"
        },
        {
          "internalType": "address",
          "name": "boxToken",
          "type": "address"
        }
      ],
      "stateMutability": "view",
      "type": "function"
    },
    {
      "inputs": [
        {
          "internalType": "address",
          "name": "from",
          "type": "address"
        },
        {
          "internalType": "address",
          "name": "to",
          "type": "address"
        },
        {
          "internalType": "uint256",
          "name": "id",
          "type": "uint256"
        },
        {
          "internalType": "uint256",
          "name": "amount",
          "type": "uint256"
        }
      ],
      "name": "transferFromWithoutData",
      "outputs": [],
      "stateMutability": "nonpayable",
      "type": "function"
    },
    {
      "inputs": [
        {
          "internalType": "address",
          "name": "newOwner",
          "type": "address"
        }
      ],
      "name": "transferOwnership",
      "outputs": [],
      "stateMutability": "nonpayable",
      "type": "function"
    },
    {
      "inputs": [
        {
          "internalType": "uint256[]",
          "name": "tokenIds",
          "type": "uint256[]"
        },
        {
          "internalType": "string[]",
          "name": "uriIds",
          "type": "string[]"
        }
      ],
      "name": "updateMultipleUriIdentifiers",
      "outputs": [],
      "stateMutability": "nonpayable",
      "type": "function"
    },
    {
      "inputs": [
        {
          "internalType": "uint256",
          "name": "tokenId",
          "type": "uint256"
        },
        {
          "internalType": "bool",
          "name": "transferable",
          "type": "bool"
        }
      ],
      "name": "updateTransferableStatus",
      "outputs": [],
      "stateMutability": "nonpayable",
      "type": "function"
    },
    {
      "inputs": [
        {
          "internalType": "uint256",
          "name": "tokenId",
          "type": "uint256"
        },
        {
          "internalType": "string",
          "name": "uriId",
          "type": "string"
        }
      ],
      "name": "updateUriIdentifier",
      "outputs": [],
      "stateMutability": "nonpayable",
      "type": "function"
    },
    {
      "inputs": [
        {
          "internalType": "uint256",
          "name": "tokenId",
          "type": "uint256"
        }
      ],
      "name": "uri",
      "outputs": [
        {
          "internalType": "string",
          "name": "",
          "type": "string"
        }
      ],
      "stateMutability": "view",
      "type": "function"
    }
  ],
  "transactionHash": "0x443ccd9b8b0409a6e69355c9c8182a45ee1415167212c5bef9532a038243de59",
  "args": [
    "www.sphere.com/"
  ],
  "numDeployments": 1,
  "solcInputHash": "df4507844570f760f677cf6ad5cce948",
  "bytecode": "0x60806040523480156200001157600080fd5b5060405162005ff838038062005ff883398181016040528101906200003791906200027d565b8080620000596200004d6200007360201b60201c565b6200007b60201b60201c565b6200006a816200013f60201b60201c565b50505062000432565b600033905090565b60008060009054906101000a900473ffffffffffffffffffffffffffffffffffffffff169050816000806101000a81548173ffffffffffffffffffffffffffffffffffffffff021916908373ffffffffffffffffffffffffffffffffffffffff1602179055508173ffffffffffffffffffffffffffffffffffffffff168173ffffffffffffffffffffffffffffffffffffffff167f8be0079c531659141344cd1fd0a4f28419497f9722a3daafe3b4186f6b6457e060405160405180910390a35050565b8060039080519060200190620001579291906200015b565b5050565b828054620001699062000357565b90600052602060002090601f0160209004810192826200018d5760008555620001d9565b82601f10620001a857805160ff1916838001178555620001d9565b82800160010185558215620001d9579182015b82811115620001d8578251825591602001919060010190620001bb565b5b509050620001e89190620001ec565b5090565b5b8082111562000207576000816000905550600101620001ed565b5090565b6000620002226200021c84620002eb565b620002c2565b9050828152602081018484840111156200023b57600080fd5b6200024884828562000321565b509392505050565b600082601f8301126200026257600080fd5b8151620002748482602086016200020b565b91505092915050565b6000602082840312156200029057600080fd5b600082015167ffffffffffffffff811115620002ab57600080fd5b620002b98482850162000250565b91505092915050565b6000620002ce620002e1565b9050620002dc82826200038d565b919050565b6000604051905090565b600067ffffffffffffffff821115620003095762000308620003f2565b5b620003148262000421565b9050602081019050919050565b60005b838110156200034157808201518184015260208101905062000324565b8381111562000351576000848401525b50505050565b600060028204905060018216806200037057607f821691505b60208210811415620003875762000386620003c3565b5b50919050565b620003988262000421565b810181811067ffffffffffffffff82111715620003ba57620003b9620003f2565b5b80604052505050565b7f4e487b7100000000000000000000000000000000000000000000000000000000600052602260045260246000fd5b7f4e487b7100000000000000000000000000000000000000000000000000000000600052604160045260246000fd5b6000601f19601f8301169050919050565b615bb680620004426000396000f3fe608060405234801561001057600080fd5b506004361061018d5760003560e01c80638273a411116100de578063c1cef73611610097578063f242432a11610071578063f242432a1461047a578063f2fde38b14610496578063f5298aca146104b2578063fa6cca10146104ce5761018d565b8063c1cef73614610412578063d2047b541461042e578063e985e9c51461044a5761018d565b80638273a4111461035457806384385b6b146103845780638da5cb5b146103a057806397c7cc87146103be578063a22cb465146103da578063ba748698146103f65761018d565b8063351521cd1161014b5780635969caf1116101255780635969caf1146102de578063715018a6146102fa578063732a4d3114610304578063818f2e42146103225761018d565b8063351521cd14610276578063492d306b146102925780634e1273f4146102ae5761018d565b8062fdd58e1461019257806301ffc9a7146101c2578063036789d1146101f25780630e89341c1461020e578063156e29f61461023e5780632eb2c2d61461025a575b600080fd5b6101ac60048036038101906101a7919061408c565b6104ea565b6040516101b99190615009565b60405180910390f35b6101dc60048036038101906101d79190614376565b6105b4565b6040516101e99190614c8c565b60405180910390f35b61020c600480360381019061020791906142d8565b610696565b005b6102286004803603810190610223919061440d565b61081e565b6040516102359190614cd9565b60405180910390f35b610258600480360381019061025391906140c8565b6108e6565b005b610274600480360381019061026f9190613e9f565b610976565b005b610290600480360381019061028b9190614117565b610a17565b005b6102ac60048036038101906102a791906143c8565b610c35565b005b6102c860048036038101906102c3919061426c565b610d93565b6040516102d59190614c33565b60405180910390f35b6102f860048036038101906102f3919061445f565b610f44565b005b61030261112a565b005b61030c6111b2565b6040516103199190614c11565b60405180910390f35b61033c6004803603810190610337919061440d565b61130d565b60405161034b93929190614cfb565b60405180910390f35b61036e60048036038101906103699190613e3a565b6113ec565b60405161037b9190614c33565b60405180910390f35b61039e60048036038101906103999190613f5e565b6114eb565b005b6103a8611639565b6040516103b59190614afd565b60405180910390f35b6103d860048036038101906103d3919061449b565b611662565b005b6103f460048036038101906103ef9190614050565b6116ee565b005b610410600480360381019061040b91906141fc565b611704565b005b61042c600480360381019061042791906144f3565b611946565b005b61044860048036038101906104439190614117565b611c8d565b005b610464600480360381019061045f9190613e63565b611eaf565b6040516104719190614c8c565b60405180910390f35b610494600480360381019061048f9190613fc1565b611f43565b005b6104b060048036038101906104ab9190613e3a565b61208f565b005b6104cc60048036038101906104c791906140c8565b612187565b005b6104e860048036038101906104e391906141bb565b612213565b005b60008073ffffffffffffffffffffffffffffffffffffffff168373ffffffffffffffffffffffffffffffffffffffff16141561055b576040517f08c379a000000000000000000000000000000000000000000000000000000000815260040161055290614dc9565b60405180910390fd5b6001600083815260200190815260200160002060008473ffffffffffffffffffffffffffffffffffffffff1673ffffffffffffffffffffffffffffffffffffffff16815260200190815260200160002054905092915050565b60007fd9b67a26000000000000000000000000000000000000000000000000000000007bffffffffffffffffffffffffffffffffffffffffffffffffffffffff1916827bffffffffffffffffffffffffffffffffffffffffffffffffffffffff1916148061067f57507f0e89341c000000000000000000000000000000000000000000000000000000007bffffffffffffffffffffffffffffffffffffffffffffffffffffffff1916827bffffffffffffffffffffffffffffffffffffffffffffffffffffffff1916145b8061068f575061068e826123f3565b5b9050919050565b61069e61245d565b73ffffffffffffffffffffffffffffffffffffffff166106bc611639565b73ffffffffffffffffffffffffffffffffffffffff1614610712576040517f08c379a000000000000000000000000000000000000000000000000000000000815260040161070990614f09565b60405180910390fd5b81819050848490501461075a576040517f08c379a000000000000000000000000000000000000000000000000000000000815260040161075190614e29565b60405180910390fd5b60005b848490508160ff1610156108175761080485858360ff168181106107aa577f4e487b7100000000000000000000000000000000000000000000000000000000600052603260045260246000fd5b9050602002013584848460ff168181106107ed577f4e487b7100000000000000000000000000000000000000000000000000000000600052603260045260246000fd5b90506020028101906107ff919061504d565b612465565b808061080f9061544c565b91505061075d565b5050505050565b6060600061082b83612669565b90506108de600460008581526020019081526020016000206000018054610851906153a0565b80601f016020809104026020016040519081016040528092919081815260200182805461087d906153a0565b80156108ca5780601f1061089f576101008083540402835291602001916108ca565b820191906000526020600020905b8154815290600101906020018083116108ad57829003601f168201915b5050505050826126fd90919063ffffffff16565b915050919050565b6108ee61245d565b73ffffffffffffffffffffffffffffffffffffffff1661090c611639565b73ffffffffffffffffffffffffffffffffffffffff1614610962576040517f08c379a000000000000000000000000000000000000000000000000000000000815260040161095990614f09565b60405180910390fd5b606061097084848484612729565b50505050565b61097e61245d565b73ffffffffffffffffffffffffffffffffffffffff168573ffffffffffffffffffffffffffffffffffffffff1614806109c457506109c3856109be61245d565b611eaf565b5b610a03576040517f08c379a00000000000000000000000000000000000000000000000000000000081526004016109fa90614e89565b60405180910390fd5b610a108585858585612824565b5050505050565b610a1f61245d565b73ffffffffffffffffffffffffffffffffffffffff16610a3d611639565b73ffffffffffffffffffffffffffffffffffffffff1614610a93576040517f08c379a0000000000000000000000000000000000000000000000000000000008152600401610a8a90614f09565b60405180910390fd5b85858585858580806020026020016040519081016040528093929190818152602001838360200280828437600081840152601f19601f820116905080830192505050505050508282905085859050148015610af15750805183839050145b610b30576040517f08c379a0000000000000000000000000000000000000000000000000000000008152600401610b2790614e29565b60405180910390fd5b60005b8b8b9050811015610c2757610c148c8c83818110610b7a577f4e487b7100000000000000000000000000000000000000000000000000000000600052603260045260246000fd5b9050602002016020810190610b8f9190613e3a565b8b8b84818110610bc8577f4e487b7100000000000000000000000000000000000000000000000000000000600052603260045260246000fd5b905060200201358a8a85818110610c08577f4e487b7100000000000000000000000000000000000000000000000000000000600052603260045260246000fd5b90506020020135612b87565b8080610c1f90615403565b915050610b33565b505050505050505050505050565b610c3d61245d565b73ffffffffffffffffffffffffffffffffffffffff16610c5b611639565b73ffffffffffffffffffffffffffffffffffffffff1614610cb1576040517f08c379a0000000000000000000000000000000000000000000000000000000008152600401610ca890614f09565b60405180910390fd5b8181610d0082828080601f016020809104026020016040519081016040528093929190818152602001838380828437600081840152601f19601f82011690508083019250505050505050612c80565b15610d40576040517f08c379a0000000000000000000000000000000000000000000000000000000008152600401610d3790614fe9565b60405180910390fd5b610d8d84848080601f016020809104026020016040519081016040528093929190818152602001838380828437600081840152601f19601f82011690508083019250505050505050612c8d565b50505050565b60608151835114610dd9576040517f08c379a0000000000000000000000000000000000000000000000000000000008152600401610dd090614f49565b60405180910390fd5b6000835167ffffffffffffffff811115610e1c577f4e487b7100000000000000000000000000000000000000000000000000000000600052604160045260246000fd5b604051908082528060200260200182016040528015610e4a5781602001602082028036833780820191505090505b50905060005b8451811015610f3957610ee3858281518110610e95577f4e487b7100000000000000000000000000000000000000000000000000000000600052603260045260246000fd5b6020026020010151858381518110610ed6577f4e487b7100000000000000000000000000000000000000000000000000000000600052603260045260246000fd5b60200260200101516104ea565b828281518110610f1c577f4e487b7100000000000000000000000000000000000000000000000000000000600052603260045260246000fd5b60200260200101818152505080610f3290615403565b9050610e50565b508091505092915050565b610f4c61245d565b73ffffffffffffffffffffffffffffffffffffffff16610f6a611639565b73ffffffffffffffffffffffffffffffffffffffff1614610fc0576040517f08c379a0000000000000000000000000000000000000000000000000000000008152600401610fb790614f09565b60405180910390fd5b81611068600460008381526020019081526020016000206000018054610fe5906153a0565b80601f0160208091040260200160405190810160405280929190818152602001828054611011906153a0565b801561105e5780601f106110335761010080835404028352916020019161105e565b820191906000526020600020905b81548152906001019060200180831161104157829003601f168201915b5050505050612c80565b156110a8576040517f08c379a000000000000000000000000000000000000000000000000000000000815260040161109f90614e49565b60405180910390fd5b816004600085815260200190815260200160002060010160006101000a81548160ff021916908315150217905550827f684099fd398949dc782e92c48c5b6b47f1e1f6cadc408d22d5159752d6c4bced600460008681526020019081526020016000206000018460405161111d929190614d39565b60405180910390a2505050565b61113261245d565b73ffffffffffffffffffffffffffffffffffffffff16611150611639565b73ffffffffffffffffffffffffffffffffffffffff16146111a6576040517f08c379a000000000000000000000000000000000000000000000000000000000815260040161119d90614f09565b60405180910390fd5b6111b06000612ca7565b565b606060065467ffffffffffffffff8111156111f6577f4e487b7100000000000000000000000000000000000000000000000000000000600052604160045260246000fd5b6040519080825280602002602001820160405280156112245781602001602082028036833780820191505090505b5090506000600190505b6006548160ff161161130957600460008260ff16815260200190815260200160002060010160019054906101000a900473ffffffffffffffffffffffffffffffffffffffff168260018361128291906152a9565b60ff16815181106112bc577f4e487b7100000000000000000000000000000000000000000000000000000000600052603260045260246000fd5b602002602001019073ffffffffffffffffffffffffffffffffffffffff16908173ffffffffffffffffffffffffffffffffffffffff168152505080806113019061544c565b91505061122e565b5090565b6004602052806000526040600020600091509050806000018054611330906153a0565b80601f016020809104026020016040519081016040528092919081815260200182805461135c906153a0565b80156113a95780601f1061137e576101008083540402835291602001916113a9565b820191906000526020600020905b81548152906001019060200180831161138c57829003601f168201915b5050505050908060010160009054906101000a900460ff16908060010160019054906101000a900473ffffffffffffffffffffffffffffffffffffffff16905083565b606060065467ffffffffffffffff811115611430577f4e487b7100000000000000000000000000000000000000000000000000000000600052604160045260246000fd5b60405190808252806020026020018201604052801561145e5781602001602082028036833780820191505090505b50905060005b6006548160ff1610156114e55761148a836001836114829190615272565b60ff166104ea565b828260ff16815181106114c6577f4e487b7100000000000000000000000000000000000000000000000000000000600052603260045260246000fd5b60200260200101818152505080806114dd9061544c565b915050611464565b50919050565b81846004600083815260200190815260200160002060010160009054906101000a900460ff16611550576040517f08c379a000000000000000000000000000000000000000000000000000000000815260040161154790614f89565b60405180910390fd5b61155861245d565b73ffffffffffffffffffffffffffffffffffffffff16611576611639565b73ffffffffffffffffffffffffffffffffffffffff1614806115ca575061159b61245d565b73ffffffffffffffffffffffffffffffffffffffff168173ffffffffffffffffffffffffffffffffffffffff16145b806115e257506115e1816115dc61245d565b611eaf565b5b611621576040517f08c379a000000000000000000000000000000000000000000000000000000000815260040161161890614da9565b60405180910390fd5b60606116308787878785612d6b565b50505050505050565b60008060009054906101000a900473ffffffffffffffffffffffffffffffffffffffff16905090565b61166a61245d565b73ffffffffffffffffffffffffffffffffffffffff16611688611639565b73ffffffffffffffffffffffffffffffffffffffff16146116de576040517f08c379a00000000000000000000000000000000000000000000000000000000081526004016116d590614f09565b60405180910390fd5b6116e9838383612465565b505050565b6117006116f961245d565b8383612ff0565b5050565b61170c61245d565b73ffffffffffffffffffffffffffffffffffffffff1661172a611639565b73ffffffffffffffffffffffffffffffffffffffff1614611780576040517f08c379a000000000000000000000000000000000000000000000000000000000815260040161177790614f09565b60405180910390fd5b6000600654905060005b84518160ff161015611938576000858260ff16815181106117d4577f4e487b7100000000000000000000000000000000000000000000000000000000600052603260045260246000fd5b602002602001015190506000600560008373ffffffffffffffffffffffffffffffffffffffff1673ffffffffffffffffffffffffffffffffffffffff1681526020019081526020016000205414611860576040517f08c379a000000000000000000000000000000000000000000000000000000000815260040161185790614ea9565b60405180910390fd5b60018361186d919061521c565b600560008373ffffffffffffffffffffffffffffffffffffffff1673ffffffffffffffffffffffffffffffffffffffff168152602001908152602001600020819055506119166001846118c0919061521c565b86868560ff168181106118fc577f4e487b7100000000000000000000000000000000000000000000000000000000600052603260045260246000fd5b905060200281019061190e919061504d565b600085611946565b828061192190615403565b9350505080806119309061544c565b91505061178a565b508060068190555050505050565b61194e61245d565b73ffffffffffffffffffffffffffffffffffffffff1661196c611639565b73ffffffffffffffffffffffffffffffffffffffff16146119c2576040517f08c379a00000000000000000000000000000000000000000000000000000000081526004016119b990614f09565b60405180910390fd5b8383611a1182828080601f016020809104026020016040519081016040528093929190818152602001838380828437600081840152601f19601f82011690508083019250505050505050612c80565b15611a51576040517f08c379a0000000000000000000000000000000000000000000000000000000008152600401611a4890614fe9565b60405180910390fd5b611af8600460008981526020019081526020016000206000018054611a75906153a0565b80601f0160208091040260200160405190810160405280929190818152602001828054611aa1906153a0565b8015611aee5780601f10611ac357610100808354040283529160200191611aee565b820191906000526020600020905b815481529060010190602001808311611ad157829003601f168201915b5050505050612c80565b611b37576040517f08c379a0000000000000000000000000000000000000000000000000000000008152600401611b2e90614fc9565b60405180910390fd5b604051806060016040528087878080601f016020809104026020016040519081016040528093929190818152602001838380828437600081840152601f19601f82011690508083019250505050505050815260200185151581526020018473ffffffffffffffffffffffffffffffffffffffff16815250600460008981526020019081526020016000206000820151816000019080519060200190611bdd9291906139c2565b5060208201518160010160006101000a81548160ff02191690831515021790555060408201518160010160016101000a81548173ffffffffffffffffffffffffffffffffffffffff021916908373ffffffffffffffffffffffffffffffffffffffff160217905550905050867f684099fd398949dc782e92c48c5b6b47f1e1f6cadc408d22d5159752d6c4bced878787604051611c7c93929190614ca7565b60405180910390a250505050505050565b611c9561245d565b73ffffffffffffffffffffffffffffffffffffffff16611cb3611639565b73ffffffffffffffffffffffffffffffffffffffff1614611d09576040517f08c379a0000000000000000000000000000000000000000000000000000000008152600401611d0090614f09565b60405180910390fd5b85858585858580806020026020016040519081016040528093929190818152602001838360200280828437600081840152601f19601f820116905080830192505050505050508282905085859050148015611d675750805183839050145b611da6576040517f08c379a0000000000000000000000000000000000000000000000000000000008152600401611d9d90614e29565b60405180910390fd5b606060005b8c8c9050811015611ea057611e8d8d8d83818110611df2577f4e487b7100000000000000000000000000000000000000000000000000000000600052603260045260246000fd5b9050602002016020810190611e079190613e3a565b8c8c84818110611e40577f4e487b7100000000000000000000000000000000000000000000000000000000600052603260045260246000fd5b905060200201358b8b85818110611e80577f4e487b7100000000000000000000000000000000000000000000000000000000600052603260045260246000fd5b9050602002013585612729565b8080611e9890615403565b915050611dab565b50505050505050505050505050565b6000600260008473ffffffffffffffffffffffffffffffffffffffff1673ffffffffffffffffffffffffffffffffffffffff16815260200190815260200160002060008373ffffffffffffffffffffffffffffffffffffffff1673ffffffffffffffffffffffffffffffffffffffff16815260200190815260200160002060009054906101000a900460ff16905092915050565b82856004600083815260200190815260200160002060010160009054906101000a900460ff16611fa8576040517f08c379a0000000000000000000000000000000000000000000000000000000008152600401611f9f90614f89565b60405180910390fd5b611fb061245d565b73ffffffffffffffffffffffffffffffffffffffff16611fce611639565b73ffffffffffffffffffffffffffffffffffffffff1614806120225750611ff361245d565b73ffffffffffffffffffffffffffffffffffffffff168173ffffffffffffffffffffffffffffffffffffffff16145b8061203a57506120398161203461245d565b611eaf565b5b612079576040517f08c379a000000000000000000000000000000000000000000000000000000000815260040161207090614da9565b60405180910390fd5b6120868787878787612d6b565b50505050505050565b61209761245d565b73ffffffffffffffffffffffffffffffffffffffff166120b5611639565b73ffffffffffffffffffffffffffffffffffffffff161461210b576040517f08c379a000000000000000000000000000000000000000000000000000000000815260040161210290614f09565b60405180910390fd5b600073ffffffffffffffffffffffffffffffffffffffff168173ffffffffffffffffffffffffffffffffffffffff16141561217b576040517f08c379a000000000000000000000000000000000000000000000000000000000815260040161217290614de9565b60405180910390fd5b61218481612ca7565b50565b61218f61245d565b73ffffffffffffffffffffffffffffffffffffffff166121ad611639565b73ffffffffffffffffffffffffffffffffffffffff1614612203576040517f08c379a00000000000000000000000000000000000000000000000000000000081526004016121fa90614f09565b60405180910390fd5b61220e838383612b87565b505050565b60606000805b83518160ff1610156123ed57838160ff1681518110612261577f4e487b7100000000000000000000000000000000000000000000000000000000600052603260045260246000fd5b6020026020010151915060008273ffffffffffffffffffffffffffffffffffffffff166370a08231336040518263ffffffff1660e01b81526004016122a69190614afd565b60206040518083038186803b1580156122be57600080fd5b505afa1580156122d2573d6000803e3d6000fd5b505050506040513d601f19601f820116820180604052508101906122f69190614436565b90506000600560008573ffffffffffffffffffffffffffffffffffffffff1673ffffffffffffffffffffffffffffffffffffffff1681526020019081526020016000205490508373ffffffffffffffffffffffffffffffffffffffff166323b872dd3330856040518463ffffffff1660e01b815260040161237993929190614b80565b602060405180830381600087803b15801561239357600080fd5b505af11580156123a7573d6000803e3d6000fd5b505050506040513d601f19601f820116820180604052508101906123cb919061434d565b506123d833828488612729565b505080806123e59061544c565b915050612219565b50505050565b60007f01ffc9a7000000000000000000000000000000000000000000000000000000007bffffffffffffffffffffffffffffffffffffffffffffffffffffffff1916827bffffffffffffffffffffffffffffffffffffffffffffffffffffffff1916149050919050565b600033905090565b8261250d60046000838152602001908152602001600020600001805461248a906153a0565b80601f01602080910402602001604051908101604052809291908181526020018280546124b6906153a0565b80156125035780601f106124d857610100808354040283529160200191612503565b820191906000526020600020905b8154815290600101906020018083116124e657829003601f168201915b5050505050612c80565b1561254d576040517f08c379a000000000000000000000000000000000000000000000000000000000815260040161254490614e49565b60405180910390fd5b828261259c82828080601f016020809104026020016040519081016040528093929190818152602001838380828437600081840152601f19601f82011690508083019250505050505050612c80565b156125dc576040517f08c379a00000000000000000000000000000000000000000000000000000000081526004016125d390614fe9565b60405180910390fd5b8484600460008981526020019081526020016000206000019190612601929190613a48565b50857f684099fd398949dc782e92c48c5b6b47f1e1f6cadc408d22d5159752d6c4bced8686600460008b815260200190815260200160002060010160009054906101000a900460ff1660405161265993929190614ca7565b60405180910390a2505050505050565b606060038054612678906153a0565b80601f01602080910402602001604051908101604052809291908181526020018280546126a4906153a0565b80156126f15780601f106126c6576101008083540402835291602001916126f1565b820191906000526020600020905b8154815290600101906020018083116126d457829003601f168201915b50505050509050919050565b60608282604051602001612712929190614ad9565b604051602081830303815290604052905092915050565b826127d160046000838152602001908152602001600020600001805461274e906153a0565b80601f016020809104026020016040519081016040528092919081815260200182805461277a906153a0565b80156127c75780601f1061279c576101008083540402835291602001916127c7565b820191906000526020600020905b8154815290600101906020018083116127aa57829003601f168201915b5050505050612c80565b15612811576040517f08c379a000000000000000000000000000000000000000000000000000000000815260040161280890614e49565b60405180910390fd5b61281d8585858561315d565b5050505050565b8151835114612868576040517f08c379a000000000000000000000000000000000000000000000000000000000815260040161285f90614f69565b60405180910390fd5b600073ffffffffffffffffffffffffffffffffffffffff168473ffffffffffffffffffffffffffffffffffffffff1614156128d8576040517f08c379a00000000000000000000000000000000000000000000000000000000081526004016128cf90614e69565b60405180910390fd5b60006128e261245d565b90506128f28187878787876132f4565b60005b8451811015612af2576000858281518110612939577f4e487b7100000000000000000000000000000000000000000000000000000000600052603260045260246000fd5b60200260200101519050600085838151811061297e577f4e487b7100000000000000000000000000000000000000000000000000000000600052603260045260246000fd5b6020026020010151905060006001600084815260200190815260200160002060008b73ffffffffffffffffffffffffffffffffffffffff1673ffffffffffffffffffffffffffffffffffffffff16815260200190815260200160002054905081811015612a20576040517f08c379a0000000000000000000000000000000000000000000000000000000008152600401612a1790614ee9565b60405180910390fd5b8181036001600085815260200190815260200160002060008c73ffffffffffffffffffffffffffffffffffffffff1673ffffffffffffffffffffffffffffffffffffffff16815260200190815260200160002081905550816001600085815260200190815260200160002060008b73ffffffffffffffffffffffffffffffffffffffff1673ffffffffffffffffffffffffffffffffffffffff1681526020019081526020016000206000828254612ad7919061521c565b9250508190555050505080612aeb90615403565b90506128f5565b508473ffffffffffffffffffffffffffffffffffffffff168673ffffffffffffffffffffffffffffffffffffffff168273ffffffffffffffffffffffffffffffffffffffff167f4a39dc06d4c0dbc64b70af90fd698a233a518aa5d07e595d983b8c0526c8f7fb8787604051612b69929190614c55565b60405180910390a4612b7f8187878787876132fc565b505050505050565b81612c2f600460008381526020019081526020016000206000018054612bac906153a0565b80601f0160208091040260200160405190810160405280929190818152602001828054612bd8906153a0565b8015612c255780601f10612bfa57610100808354040283529160200191612c25565b820191906000526020600020905b815481529060010190602001808311612c0857829003601f168201915b5050505050612c80565b15612c6f576040517f08c379a0000000000000000000000000000000000000000000000000000000008152600401612c6690614e49565b60405180910390fd5b612c7a8484846134e3565b50505050565b6000808251149050919050565b8060039080519060200190612ca39291906139c2565b5050565b60008060009054906101000a900473ffffffffffffffffffffffffffffffffffffffff169050816000806101000a81548173ffffffffffffffffffffffffffffffffffffffff021916908373ffffffffffffffffffffffffffffffffffffffff1602179055508173ffffffffffffffffffffffffffffffffffffffff168173ffffffffffffffffffffffffffffffffffffffff167f8be0079c531659141344cd1fd0a4f28419497f9722a3daafe3b4186f6b6457e060405160405180910390a35050565b600073ffffffffffffffffffffffffffffffffffffffff168473ffffffffffffffffffffffffffffffffffffffff161415612ddb576040517f08c379a0000000000000000000000000000000000000000000000000000000008152600401612dd290614e69565b60405180910390fd5b6000612de561245d565b9050612e05818787612df688613702565b612dff88613702565b876132f4565b60006001600086815260200190815260200160002060008873ffffffffffffffffffffffffffffffffffffffff1673ffffffffffffffffffffffffffffffffffffffff16815260200190815260200160002054905083811015612e9d576040517f08c379a0000000000000000000000000000000000000000000000000000000008152600401612e9490614ee9565b60405180910390fd5b8381036001600087815260200190815260200160002060008973ffffffffffffffffffffffffffffffffffffffff1673ffffffffffffffffffffffffffffffffffffffff16815260200190815260200160002081905550836001600087815260200190815260200160002060008873ffffffffffffffffffffffffffffffffffffffff1673ffffffffffffffffffffffffffffffffffffffff1681526020019081526020016000206000828254612f54919061521c565b925050819055508573ffffffffffffffffffffffffffffffffffffffff168773ffffffffffffffffffffffffffffffffffffffff168373ffffffffffffffffffffffffffffffffffffffff167fc3d58168c5ae7397731d063d5bbf3d657854427343f4c083240f7aacaa2d0f628888604051612fd1929190615024565b60405180910390a4612fe78288888888886137c8565b50505050505050565b8173ffffffffffffffffffffffffffffffffffffffff168373ffffffffffffffffffffffffffffffffffffffff16141561305f576040517f08c379a000000000000000000000000000000000000000000000000000000000815260040161305690614f29565b60405180910390fd5b80600260008573ffffffffffffffffffffffffffffffffffffffff1673ffffffffffffffffffffffffffffffffffffffff16815260200190815260200160002060008473ffffffffffffffffffffffffffffffffffffffff1673ffffffffffffffffffffffffffffffffffffffff16815260200190815260200160002060006101000a81548160ff0219169083151502179055508173ffffffffffffffffffffffffffffffffffffffff168373ffffffffffffffffffffffffffffffffffffffff167f17307eab39ab6107e8899845ad3d59bd9653f200f220920489ca2b5937696c31836040516131509190614c8c565b60405180910390a3505050565b600073ffffffffffffffffffffffffffffffffffffffff168473ffffffffffffffffffffffffffffffffffffffff1614156131cd576040517f08c379a00000000000000000000000000000000000000000000000000000000081526004016131c490614fa9565b60405180910390fd5b60006131d761245d565b90506131f8816000876131e988613702565b6131f288613702565b876132f4565b826001600086815260200190815260200160002060008773ffffffffffffffffffffffffffffffffffffffff1673ffffffffffffffffffffffffffffffffffffffff1681526020019081526020016000206000828254613258919061521c565b925050819055508473ffffffffffffffffffffffffffffffffffffffff16600073ffffffffffffffffffffffffffffffffffffffff168273ffffffffffffffffffffffffffffffffffffffff167fc3d58168c5ae7397731d063d5bbf3d657854427343f4c083240f7aacaa2d0f6287876040516132d6929190615024565b60405180910390a46132ed816000878787876137c8565b5050505050565b505050505050565b61331b8473ffffffffffffffffffffffffffffffffffffffff166139af565b156134db578373ffffffffffffffffffffffffffffffffffffffff1663bc197c8187878686866040518663ffffffff1660e01b8152600401613361959493929190614b18565b602060405180830381600087803b15801561337b57600080fd5b505af19250505080156133ac57506040513d601f19601f820116820180604052508101906133a9919061439f565b60015b613452576133b8615503565b806308c379a0141561341557506133cd615a8e565b806133d85750613417565b806040517f08c379a000000000000000000000000000000000000000000000000000000000815260040161340c9190614cd9565b60405180910390fd5b505b6040517f08c379a000000000000000000000000000000000000000000000000000000000815260040161344990614d69565b60405180910390fd5b63bc197c8160e01b7bffffffffffffffffffffffffffffffffffffffffffffffffffffffff1916817bffffffffffffffffffffffffffffffffffffffffffffffffffffffff1916146134d9576040517f08c379a00000000000000000000000000000000000000000000000000000000081526004016134d090614d89565b60405180910390fd5b505b505050505050565b600073ffffffffffffffffffffffffffffffffffffffff168373ffffffffffffffffffffffffffffffffffffffff161415613553576040517f08c379a000000000000000000000000000000000000000000000000000000000815260040161354a90614ec9565b60405180910390fd5b600061355d61245d565b905061358d8185600061356f87613702565b61357887613702565b604051806020016040528060008152506132f4565b60006001600085815260200190815260200160002060008673ffffffffffffffffffffffffffffffffffffffff1673ffffffffffffffffffffffffffffffffffffffff16815260200190815260200160002054905082811015613625576040517f08c379a000000000000000000000000000000000000000000000000000000000815260040161361c90614e09565b60405180910390fd5b8281036001600086815260200190815260200160002060008773ffffffffffffffffffffffffffffffffffffffff1673ffffffffffffffffffffffffffffffffffffffff16815260200190815260200160002081905550600073ffffffffffffffffffffffffffffffffffffffff168573ffffffffffffffffffffffffffffffffffffffff168373ffffffffffffffffffffffffffffffffffffffff167fc3d58168c5ae7397731d063d5bbf3d657854427343f4c083240f7aacaa2d0f6287876040516136f3929190615024565b60405180910390a45050505050565b60606000600167ffffffffffffffff811115613747577f4e487b7100000000000000000000000000000000000000000000000000000000600052604160045260246000fd5b6040519080825280602002602001820160405280156137755781602001602082028036833780820191505090505b50905082816000815181106137b3577f4e487b7100000000000000000000000000000000000000000000000000000000600052603260045260246000fd5b60200260200101818152505080915050919050565b6137e78473ffffffffffffffffffffffffffffffffffffffff166139af565b156139a7578373ffffffffffffffffffffffffffffffffffffffff1663f23a6e6187878686866040518663ffffffff1660e01b815260040161382d959493929190614bb7565b602060405180830381600087803b15801561384757600080fd5b505af192505050801561387857506040513d601f19601f82011682018060405250810190613875919061439f565b60015b61391e57613884615503565b806308c379a014156138e15750613899615a8e565b806138a457506138e3565b806040517f08c379a00000000000000000000000000000000000000000000000000000000081526004016138d89190614cd9565b60405180910390fd5b505b6040517f08c379a000000000000000000000000000000000000000000000000000000000815260040161391590614d69565b60405180910390fd5b63f23a6e6160e01b7bffffffffffffffffffffffffffffffffffffffffffffffffffffffff1916817bffffffffffffffffffffffffffffffffffffffffffffffffffffffff1916146139a5576040517f08c379a000000000000000000000000000000000000000000000000000000000815260040161399c90614d89565b60405180910390fd5b505b505050505050565b600080823b905060008111915050919050565b8280546139ce906153a0565b90600052602060002090601f0160209004810192826139f05760008555613a37565b82601f10613a0957805160ff1916838001178555613a37565b82800160010185558215613a37579182015b82811115613a36578251825591602001919060010190613a1b565b5b509050613a449190613ace565b5090565b828054613a54906153a0565b90600052602060002090601f016020900481019282613a765760008555613abd565b82601f10613a8f57803560ff1916838001178555613abd565b82800160010185558215613abd579182015b82811115613abc578235825591602001919060010190613aa1565b5b509050613aca9190613ace565b5090565b5b80821115613ae7576000816000905550600101613acf565b5090565b6000613afe613af9846150c9565b6150a4565b90508083825260208201905082856020860282011115613b1d57600080fd5b60005b85811015613b4d5781613b338882613c01565b845260208401935060208301925050600181019050613b20565b5050509392505050565b6000613b6a613b65846150f5565b6150a4565b90508083825260208201905082856020860282011115613b8957600080fd5b60005b85811015613bb95781613b9f8882613e10565b845260208401935060208301925050600181019050613b8c565b5050509392505050565b6000613bd6613bd184615121565b6150a4565b905082815260208101848484011115613bee57600080fd5b613bf984828561535e565b509392505050565b600081359050613c1081615b24565b92915050565b60008083601f840112613c2857600080fd5b8235905067ffffffffffffffff811115613c4157600080fd5b602083019150836020820283011115613c5957600080fd5b9250929050565b600082601f830112613c7157600080fd5b8135613c81848260208601613aeb565b91505092915050565b60008083601f840112613c9c57600080fd5b8235905067ffffffffffffffff811115613cb557600080fd5b602083019150836020820283011115613ccd57600080fd5b9250929050565b60008083601f840112613ce657600080fd5b8235905067ffffffffffffffff811115613cff57600080fd5b602083019150836020820283011115613d1757600080fd5b9250929050565b600082601f830112613d2f57600080fd5b8135613d3f848260208601613b57565b91505092915050565b600081359050613d5781615b3b565b92915050565b600081519050613d6c81615b3b565b92915050565b600081359050613d8181615b52565b92915050565b600081519050613d9681615b52565b92915050565b600082601f830112613dad57600080fd5b8135613dbd848260208601613bc3565b91505092915050565b60008083601f840112613dd857600080fd5b8235905067ffffffffffffffff811115613df157600080fd5b602083019150836001820283011115613e0957600080fd5b9250929050565b600081359050613e1f81615b69565b92915050565b600081519050613e3481615b69565b92915050565b600060208284031215613e4c57600080fd5b6000613e5a84828501613c01565b91505092915050565b60008060408385031215613e7657600080fd5b6000613e8485828601613c01565b9250506020613e9585828601613c01565b9150509250929050565b600080600080600060a08688031215613eb757600080fd5b6000613ec588828901613c01565b9550506020613ed688828901613c01565b945050604086013567ffffffffffffffff811115613ef357600080fd5b613eff88828901613d1e565b935050606086013567ffffffffffffffff811115613f1c57600080fd5b613f2888828901613d1e565b925050608086013567ffffffffffffffff811115613f4557600080fd5b613f5188828901613d9c565b9150509295509295909350565b60008060008060808587031215613f7457600080fd5b6000613f8287828801613c01565b9450506020613f9387828801613c01565b9350506040613fa487828801613e10565b9250506060613fb587828801613e10565b91505092959194509250565b600080600080600060a08688031215613fd957600080fd5b6000613fe788828901613c01565b9550506020613ff888828901613c01565b945050604061400988828901613e10565b935050606061401a88828901613e10565b925050608086013567ffffffffffffffff81111561403757600080fd5b61404388828901613d9c565b9150509295509295909350565b6000806040838503121561406357600080fd5b600061407185828601613c01565b925050602061408285828601613d48565b9150509250929050565b6000806040838503121561409f57600080fd5b60006140ad85828601613c01565b92505060206140be85828601613e10565b9150509250929050565b6000806000606084860312156140dd57600080fd5b60006140eb86828701613c01565b93505060206140fc86828701613e10565b925050604061410d86828701613e10565b9150509250925092565b6000806000806000806060878903121561413057600080fd5b600087013567ffffffffffffffff81111561414a57600080fd5b61415689828a01613c16565b9650965050602087013567ffffffffffffffff81111561417557600080fd5b61418189828a01613cd4565b9450945050604087013567ffffffffffffffff8111156141a057600080fd5b6141ac89828a01613cd4565b92509250509295509295509295565b6000602082840312156141cd57600080fd5b600082013567ffffffffffffffff8111156141e757600080fd5b6141f384828501613c60565b91505092915050565b60008060006040848603121561421157600080fd5b600084013567ffffffffffffffff81111561422b57600080fd5b61423786828701613c60565b935050602084013567ffffffffffffffff81111561425457600080fd5b61426086828701613c8a565b92509250509250925092565b6000806040838503121561427f57600080fd5b600083013567ffffffffffffffff81111561429957600080fd5b6142a585828601613c60565b925050602083013567ffffffffffffffff8111156142c257600080fd5b6142ce85828601613d1e565b9150509250929050565b600080600080604085870312156142ee57600080fd5b600085013567ffffffffffffffff81111561430857600080fd5b61431487828801613cd4565b9450945050602085013567ffffffffffffffff81111561433357600080fd5b61433f87828801613c8a565b925092505092959194509250565b60006020828403121561435f57600080fd5b600061436d84828501613d5d565b91505092915050565b60006020828403121561438857600080fd5b600061439684828501613d72565b91505092915050565b6000602082840312156143b157600080fd5b60006143bf84828501613d87565b91505092915050565b600080602083850312156143db57600080fd5b600083013567ffffffffffffffff8111156143f557600080fd5b61440185828601613dc6565b92509250509250929050565b60006020828403121561441f57600080fd5b600061442d84828501613e10565b91505092915050565b60006020828403121561444857600080fd5b600061445684828501613e25565b91505092915050565b6000806040838503121561447257600080fd5b600061448085828601613e10565b925050602061449185828601613d48565b9150509250929050565b6000806000604084860312156144b057600080fd5b60006144be86828701613e10565b935050602084013567ffffffffffffffff8111156144db57600080fd5b6144e786828701613dc6565b92509250509250925092565b60008060008060006080868803121561450b57600080fd5b600061451988828901613e10565b955050602086013567ffffffffffffffff81111561453657600080fd5b61454288828901613dc6565b9450945050604061455588828901613d48565b925050606061456688828901613c01565b9150509295509295909350565b600061457f83836145a3565b60208301905092915050565b60006145978383614abb565b60208301905092915050565b6145ac816152dd565b82525050565b6145bb816152dd565b82525050565b60006145cc82615187565b6145d681856151cd565b93506145e183615152565b8060005b838110156146125781516145f98882614573565b9750614604836151b3565b9250506001810190506145e5565b5085935050505092915050565b600061462a82615192565b61463481856151de565b935061463f83615162565b8060005b83811015614670578151614657888261458b565b9750614662836151c0565b925050600181019050614643565b5085935050505092915050565b614686816152ef565b82525050565b60006146978261519d565b6146a181856151ef565b93506146b181856020860161536d565b6146ba81615525565b840191505092915050565b60006146d18385615200565b93506146de83858461535e565b6146e783615525565b840190509392505050565b60006146fd826151a8565b6147078185615200565b935061471781856020860161536d565b61472081615525565b840191505092915050565b6000614736826151a8565b6147408185615211565b935061475081856020860161536d565b80840191505092915050565b60008154614769816153a0565b6147738186615200565b9450600182166000811461478e57600181146147a0576147d3565b60ff19831686526020860193506147d3565b6147a985615172565b60005b838110156147cb578154818901526001820191506020810190506147ac565b808801955050505b50505092915050565b60006147e9603483615200565b91506147f482615543565b604082019050919050565b600061480c602883615200565b915061481782615592565b604082019050919050565b600061482f600c83615200565b915061483a826155e1565b602082019050919050565b6000614852602b83615200565b915061485d8261560a565b604082019050919050565b6000614875602683615200565b915061488082615659565b604082019050919050565b6000614898602483615200565b91506148a3826156a8565b604082019050919050565b60006148bb601483615200565b91506148c6826156f7565b602082019050919050565b60006148de601383615200565b91506148e982615720565b602082019050919050565b6000614901602583615200565b915061490c82615749565b604082019050919050565b6000614924603283615200565b915061492f82615798565b604082019050919050565b6000614947600f83615200565b9150614952826157e7565b602082019050919050565b600061496a602383615200565b915061497582615810565b604082019050919050565b600061498d602a83615200565b91506149988261585f565b604082019050919050565b60006149b0602083615200565b91506149bb826158ae565b602082019050919050565b60006149d3602983615200565b91506149de826158d7565b604082019050919050565b60006149f6602983615200565b9150614a0182615926565b604082019050919050565b6000614a19602883615200565b9150614a2482615975565b604082019050919050565b6000614a3c601f83615200565b9150614a47826159c4565b602082019050919050565b6000614a5f602183615200565b9150614a6a826159ed565b604082019050919050565b6000614a82601f83615200565b9150614a8d82615a3c565b602082019050919050565b6000614aa5601683615200565b9150614ab082615a65565b602082019050919050565b614ac481615347565b82525050565b614ad381615347565b82525050565b6000614ae5828561472b565b9150614af1828461472b565b91508190509392505050565b6000602082019050614b1260008301846145b2565b92915050565b600060a082019050614b2d60008301886145b2565b614b3a60208301876145b2565b8181036040830152614b4c818661461f565b90508181036060830152614b60818561461f565b90508181036080830152614b74818461468c565b90509695505050505050565b6000606082019050614b9560008301866145b2565b614ba260208301856145b2565b614baf6040830184614aca565b949350505050565b600060a082019050614bcc60008301886145b2565b614bd960208301876145b2565b614be66040830186614aca565b614bf36060830185614aca565b8181036080830152614c05818461468c565b90509695505050505050565b60006020820190508181036000830152614c2b81846145c1565b905092915050565b60006020820190508181036000830152614c4d818461461f565b905092915050565b60006040820190508181036000830152614c6f818561461f565b90508181036020830152614c83818461461f565b90509392505050565b6000602082019050614ca1600083018461467d565b92915050565b60006040820190508181036000830152614cc28185876146c5565b9050614cd1602083018461467d565b949350505050565b60006020820190508181036000830152614cf381846146f2565b905092915050565b60006060820190508181036000830152614d1581866146f2565b9050614d24602083018561467d565b614d3160408301846145b2565b949350505050565b60006040820190508181036000830152614d53818561475c565b9050614d62602083018461467d565b9392505050565b60006020820190508181036000830152614d82816147dc565b9050919050565b60006020820190508181036000830152614da2816147ff565b9050919050565b60006020820190508181036000830152614dc281614822565b9050919050565b60006020820190508181036000830152614de281614845565b9050919050565b60006020820190508181036000830152614e0281614868565b9050919050565b60006020820190508181036000830152614e228161488b565b9050919050565b60006020820190508181036000830152614e42816148ae565b9050919050565b60006020820190508181036000830152614e62816148d1565b9050919050565b60006020820190508181036000830152614e82816148f4565b9050919050565b60006020820190508181036000830152614ea281614917565b9050919050565b60006020820190508181036000830152614ec28161493a565b9050919050565b60006020820190508181036000830152614ee28161495d565b9050919050565b60006020820190508181036000830152614f0281614980565b9050919050565b60006020820190508181036000830152614f22816149a3565b9050919050565b60006020820190508181036000830152614f42816149c6565b9050919050565b60006020820190508181036000830152614f62816149e9565b9050919050565b60006020820190508181036000830152614f8281614a0c565b9050919050565b60006020820190508181036000830152614fa281614a2f565b9050919050565b60006020820190508181036000830152614fc281614a52565b9050919050565b60006020820190508181036000830152614fe281614a75565b9050919050565b6000602082019050818103600083015261500281614a98565b9050919050565b600060208201905061501e6000830184614aca565b92915050565b60006040820190506150396000830185614aca565b6150466020830184614aca565b9392505050565b6000808335600160200384360303811261506657600080fd5b80840192508235915067ffffffffffffffff82111561508457600080fd5b60208301925060018202360383131561509c57600080fd5b509250929050565b60006150ae6150bf565b90506150ba82826153d2565b919050565b6000604051905090565b600067ffffffffffffffff8211156150e4576150e36154d4565b5b602082029050602081019050919050565b600067ffffffffffffffff8211156151105761510f6154d4565b5b602082029050602081019050919050565b600067ffffffffffffffff82111561513c5761513b6154d4565b5b61514582615525565b9050602081019050919050565b6000819050602082019050919050565b6000819050602082019050919050565b60008190508160005260206000209050919050565b600081519050919050565b600081519050919050565b600081519050919050565b600081519050919050565b6000602082019050919050565b6000602082019050919050565b600082825260208201905092915050565b600082825260208201905092915050565b600082825260208201905092915050565b600082825260208201905092915050565b600081905092915050565b600061522782615347565b915061523283615347565b9250827fffffffffffffffffffffffffffffffffffffffffffffffffffffffffffffffff0382111561526757615266615476565b5b828201905092915050565b600061527d82615351565b915061528883615351565b92508260ff0382111561529e5761529d615476565b5b828201905092915050565b60006152b482615351565b91506152bf83615351565b9250828210156152d2576152d1615476565b5b828203905092915050565b60006152e882615327565b9050919050565b60008115159050919050565b60007fffffffff0000000000000000000000000000000000000000000000000000000082169050919050565b600073ffffffffffffffffffffffffffffffffffffffff82169050919050565b6000819050919050565b600060ff82169050919050565b82818337600083830152505050565b60005b8381101561538b578082015181840152602081019050615370565b8381111561539a576000848401525b50505050565b600060028204905060018216806153b857607f821691505b602082108114156153cc576153cb6154a5565b5b50919050565b6153db82615525565b810181811067ffffffffffffffff821117156153fa576153f96154d4565b5b80604052505050565b600061540e82615347565b91507fffffffffffffffffffffffffffffffffffffffffffffffffffffffffffffffff82141561544157615440615476565b5b600182019050919050565b600061545782615351565b915060ff82141561546b5761546a615476565b5b600182019050919050565b7f4e487b7100000000000000000000000000000000000000000000000000000000600052601160045260246000fd5b7f4e487b7100000000000000000000000000000000000000000000000000000000600052602260045260246000fd5b7f4e487b7100000000000000000000000000000000000000000000000000000000600052604160045260246000fd5b600060033d11156155225760046000803e61551f600051615536565b90505b90565b6000601f19601f8301169050919050565b60008160e01c9050919050565b7f455243313135353a207472616e7366657220746f206e6f6e204552433131353560008201527f526563656976657220696d706c656d656e746572000000000000000000000000602082015250565b7f455243313135353a204552433131353552656365697665722072656a6563746560008201527f6420746f6b656e73000000000000000000000000000000000000000000000000602082015250565b7f556e617574686f72697a65640000000000000000000000000000000000000000600082015250565b7f455243313135353a2062616c616e636520717565727920666f7220746865207a60008201527f65726f2061646472657373000000000000000000000000000000000000000000602082015250565b7f4f776e61626c653a206e6577206f776e657220697320746865207a65726f206160008201527f6464726573730000000000000000000000000000000000000000000000000000602082015250565b7f455243313135353a206275726e20616d6f756e7420657863656564732062616c60008201527f616e636500000000000000000000000000000000000000000000000000000000602082015250565b7f496e707574206172726179206d69736d61746368000000000000000000000000600082015250565b7f5469657220646f6573206e6f7420657869737400000000000000000000000000600082015250565b7f455243313135353a207472616e7366657220746f20746865207a65726f20616460008201527f6472657373000000000000000000000000000000000000000000000000000000602082015250565b7f455243313135353a207472616e736665722063616c6c6572206973206e6f742060008201527f6f776e6572206e6f7220617070726f7665640000000000000000000000000000602082015250565b7f4455504c49434154455f544f4b454e0000000000000000000000000000000000600082015250565b7f455243313135353a206275726e2066726f6d20746865207a65726f206164647260008201527f6573730000000000000000000000000000000000000000000000000000000000602082015250565b7f455243313135353a20696e73756666696369656e742062616c616e636520666f60008201527f72207472616e7366657200000000000000000000000000000000000000000000602082015250565b7f4f776e61626c653a2063616c6c6572206973206e6f7420746865206f776e6572600082015250565b7f455243313135353a2073657474696e6720617070726f76616c2073746174757360008201527f20666f722073656c660000000000000000000000000000000000000000000000602082015250565b7f455243313135353a206163636f756e747320616e6420696473206c656e67746860008201527f206d69736d617463680000000000000000000000000000000000000000000000602082015250565b7f455243313135353a2069647320616e6420616d6f756e7473206c656e6774682060008201527f6d69736d61746368000000000000000000000000000000000000000000000000602082015250565b7f5472616e736665722064697361626c656420666f722074686973207469657200600082015250565b7f455243313135353a206d696e7420746f20746865207a65726f2061646472657360008201527f7300000000000000000000000000000000000000000000000000000000000000602082015250565b7f5469657220616c72656164792065786973747320666f7220746f6b656e496400600082015250565b7f537472696e672063616e6e6f7420626520656d70747900000000000000000000600082015250565b600060443d1015615a9e57615b21565b615aa66150bf565b60043d036004823e80513d602482011167ffffffffffffffff82111715615ace575050615b21565b808201805167ffffffffffffffff811115615aec5750505050615b21565b80602083010160043d038501811115615b09575050505050615b21565b615b18826020018501866153d2565b82955050505050505b90565b615b2d816152dd565b8114615b3857600080fd5b50565b615b44816152ef565b8114615b4f57600080fd5b50565b615b5b816152fb565b8114615b6657600080fd5b50565b615b7281615347565b8114615b7d57600080fd5b5056fea2646970667358221220d30b713150aedc88fa7ab90cf523cc6828e3c9e17244ae76f83aad2a2ddd4ae964736f6c63430008040033",
  "devdoc": {
    "kind": "dev",
    "methods": {
      "balanceOf(address,uint256)": {
        "details": "See {IERC1155-balanceOf}. Requirements: - `account` cannot be the zero address."
      },
      "balanceOfBatch(address[],uint256[])": {
        "details": "See {IERC1155-balanceOfBatch}. Requirements: - `accounts` and `ids` must have the same length."
      },
      "burn(address,uint256,uint256)": {
        "details": "burns specified amount token(s) of specific id from specified account",
        "params": {
          "account": "address of token holder",
          "amount": "units of token to be burnt from beneficiary",
          "id": "id of token, aka. tier"
        }
      },
      "burnFromMultiple(address[],uint256[],uint256[])": {
        "details": "burns from multiple addresses arbitrary units of tokens of ONE token id per address                      example: burn 3 units of tokenId 1 from alice and 4 units of tokenId 2 froms bob",
        "params": {
          "accounts": "list of token holder addresses",
          "amounts": "list of burn amounts",
          "tokenIds": "list of token ids (aka tiers)"
        }
      },
      "changeBaseUri(string)": {
        "details": "sets a base uri, that is the first part of the url where the metadata for a tokenId is stored",
        "params": {
          "_newBaseUri": "baseUrl (e.g. www.filestoring.com/)"
        }
      },
      "createTokenTier(uint256,string,bool,address)": {
        "details": "creates a new token tier",
        "params": {
          "tokenId": "identifier for the new token tier",
          "transferable": "determines if tokens from specific tier should be transferable or not",
          "uriId": "identifier that is appended to the baseUri together forming the uri where the metadata lives"
        }
      },
      "isApprovedForAll(address,address)": {
        "details": "See {IERC1155-isApprovedForAll}."
      },
      "mint(address,uint256,uint256)": {
        "details": "mints specified amount token(s) of specific id to specified account",
        "params": {
          "account": "beneficiary address",
          "amount": "units of token to be minted to beneficiary",
          "id": "id of token, aka. tier"
        }
      },
      "mintToMultiple(address[],uint256[],uint256[])": {
        "details": "mints to multiple addresses arbitrary units of tokens of ONE token id per address",
        "params": {
          "accounts": "list of beneficiary addresses",
          "amounts": "list of mint amounts",
          "tokenIds": "list of token ids (aka tiers)"
        }
      },
      "owner()": {
        "details": "Returns the address of the current owner."
      },
      "renounceOwnership()": {
        "details": "Leaves the contract without owner. It will not be possible to call `onlyOwner` functions anymore. Can only be called by the current owner. NOTE: Renouncing ownership will leave the contract without an owner, thereby removing any functionality that is only available to the owner."
      },
      "safeBatchTransferFrom(address,address,uint256[],uint256[],bytes)": {
        "details": "See {IERC1155-safeBatchTransferFrom}."
      },
      "safeTransferFrom(address,address,uint256,uint256,bytes)": {
        "details": "transfers tokens from one address to another allowing custom data parameter",
        "params": {
          "amount": "amount of token to be transferred",
          "from": "address from which token will be transferred",
          "id": "id of token to be transferred",
          "to": "recipient of address"
        }
      },
      "setApprovalForAll(address,bool)": {
        "details": "See {IERC1155-setApprovalForAll}."
      },
      "supportsInterface(bytes4)": {
        "details": "See {IERC165-supportsInterface}."
      },
      "transferFromWithoutData(address,address,uint256,uint256)": {
        "details": "transfers tokens from one address to another and uses 0x0 as default data parameter",
        "params": {
          "amount": "amount of token to be transferred",
          "from": "address from which token will be transferred",
          "id": "id of token to be transferred",
          "to": "recipient of address"
        }
      },
      "transferOwnership(address)": {
        "details": "Transfers ownership of the contract to a new account (`newOwner`). Can only be called by the current owner."
      },
      "updateMultipleUriIdentifiers(uint256[],string[])": {
        "details": "update uri identifiers for multiple token ids (tiers)",
        "params": {
          "tokenIds": "tokenIds for which the uri should be updated (must be in same order as uriIds)",
          "uriIds": "identifiers that are appended to the baseUri together forming the uri where the metadata lives (must be in same order ass tokenIds)"
        }
      },
      "updateTransferableStatus(uint256,bool)": {
        "details": "updates transferability for a given token id (tier)",
        "params": {
          "tokenId": "tokenId for which transferability should be updated",
          "transferable": "determines whether tokens from tier should be transferable or not"
        }
      },
      "updateUriIdentifier(uint256,string)": {
        "details": "updates the identifier that is appended to the baseUri for a specific tokenId (tier)",
        "params": {
          "tokenId": "tokenId for which the uri should be updated",
          "uriId": "identifier that is appended to the baseUri together forming the uri where the metadata lives"
        }
      },
      "uri(uint256)": {
        "details": "returns the uri for a given token",
        "params": {
          "tokenId": "tokenId for which the uri should be retrieved"
        }
      }
    },
    "version": 1
  },
  "userdoc": {
    "kind": "user",
    "methods": {
      "mintToMultiple(address[],uint256[],uint256[])": {
        "notice": "example: mint 3 units of tokenId 1 to alice and 4 units of tokenId 2 to bob"
      },
      "safeTransferFrom(address,address,uint256,uint256,bytes)": {
        "notice": "this is the standard transfer interface for ERC1155 tokens which contracts expect"
      },
      "transferFromWithoutData(address,address,uint256,uint256)": {
        "notice": "this is mainly used for manual contract interactions via etherscan"
      },
      "uri(uint256)": {
        "notice": "consists of a concatenation of baseUri and uriId"
      }
    },
    "version": 1
  },
  "storageLayout": {
    "storage": [
      {
        "astId": 7,
        "contract": "contracts/Karmic.sol:Karmic",
        "label": "_owner",
        "offset": 0,
        "slot": "0",
        "type": "t_address"
      },
      {
        "astId": 130,
        "contract": "contracts/Karmic.sol:Karmic",
        "label": "_balances",
        "offset": 0,
        "slot": "1",
        "type": "t_mapping(t_uint256,t_mapping(t_address,t_uint256))"
      },
      {
        "astId": 136,
        "contract": "contracts/Karmic.sol:Karmic",
        "label": "_operatorApprovals",
        "offset": 0,
        "slot": "2",
        "type": "t_mapping(t_address,t_mapping(t_address,t_bool))"
      },
      {
        "astId": 138,
        "contract": "contracts/Karmic.sol:Karmic",
        "label": "_uri",
        "offset": 0,
        "slot": "3",
        "type": "t_string_storage"
      },
      {
        "astId": 2399,
        "contract": "contracts/Karmic.sol:Karmic",
        "label": "tokenTiers",
        "offset": 0,
        "slot": "4",
        "type": "t_mapping(t_uint256,t_struct(TokenTier)2406_storage)"
      },
      {
        "astId": 2992,
        "contract": "contracts/Karmic.sol:Karmic",
        "label": "boxTokenTiers",
        "offset": 0,
        "slot": "5",
        "type": "t_mapping(t_address,t_uint256)"
      },
      {
        "astId": 2994,
        "contract": "contracts/Karmic.sol:Karmic",
        "label": "boxTokenCounter",
        "offset": 0,
        "slot": "6",
        "type": "t_uint256"
      }
    ],
    "types": {
      "t_address": {
        "encoding": "inplace",
        "label": "address",
        "numberOfBytes": "20"
      },
      "t_bool": {
        "encoding": "inplace",
        "label": "bool",
        "numberOfBytes": "1"
      },
      "t_mapping(t_address,t_bool)": {
        "encoding": "mapping",
        "key": "t_address",
        "label": "mapping(address => bool)",
        "numberOfBytes": "32",
        "value": "t_bool"
      },
      "t_mapping(t_address,t_mapping(t_address,t_bool))": {
        "encoding": "mapping",
        "key": "t_address",
        "label": "mapping(address => mapping(address => bool))",
        "numberOfBytes": "32",
        "value": "t_mapping(t_address,t_bool)"
      },
      "t_mapping(t_address,t_uint256)": {
        "encoding": "mapping",
        "key": "t_address",
        "label": "mapping(address => uint256)",
        "numberOfBytes": "32",
        "value": "t_uint256"
      },
      "t_mapping(t_uint256,t_mapping(t_address,t_uint256))": {
        "encoding": "mapping",
        "key": "t_uint256",
        "label": "mapping(uint256 => mapping(address => uint256))",
        "numberOfBytes": "32",
        "value": "t_mapping(t_address,t_uint256)"
      },
      "t_mapping(t_uint256,t_struct(TokenTier)2406_storage)": {
        "encoding": "mapping",
        "key": "t_uint256",
        "label": "mapping(uint256 => struct Badger.TokenTier)",
        "numberOfBytes": "32",
        "value": "t_struct(TokenTier)2406_storage"
      },
      "t_string_storage": {
        "encoding": "bytes",
        "label": "string",
        "numberOfBytes": "32"
      },
      "t_struct(TokenTier)2406_storage": {
        "encoding": "inplace",
        "label": "struct Badger.TokenTier",
        "members": [
          {
            "astId": 2401,
            "contract": "contracts/Karmic.sol:Karmic",
            "label": "uriId",
            "offset": 0,
            "slot": "0",
            "type": "t_string_storage"
          },
          {
            "astId": 2403,
            "contract": "contracts/Karmic.sol:Karmic",
            "label": "transferable",
            "offset": 0,
            "slot": "1",
            "type": "t_bool"
          },
          {
            "astId": 2405,
            "contract": "contracts/Karmic.sol:Karmic",
            "label": "boxToken",
            "offset": 1,
            "slot": "1",
            "type": "t_address"
          }
        ],
        "numberOfBytes": "64"
      },
      "t_uint256": {
        "encoding": "inplace",
        "label": "uint256",
        "numberOfBytes": "32"
      }
    }
  }
}